:020000040000FA
:060000000A128A11EE2F26
:100CDC008312031308080139732E080083120313BF
:100CEC00080C0139792E0800700C83120313031CB5
:100CFC008813031888170800700C83120313031C45
:100D0C000813031808170800700C83120313031C34
:100D1C0088120318881608007008203E840083137C
:100D2C000008831203138600080083160317890139
:100D3C0083160313860183120313860108003F34C4
:100D4C0006345B344F3466346D347D3407347F3471
:100D5C006F3483160313081488148813081388122D
:100D6C0083120313880108007E088A007F08820022
:100D7C000A128A11BA260A128A118000840A0408FF
:100D8C007D0603190034FF0A0319FE0ABE2EDC2E61
:100D9C000130F0020030031CF103F102C730F20005
:100DAC00D72EF20BD62EDA2EDB2EDC2E7008710429
:100DBC00031DE12EE22ECE2EE32E08000A128A111C
:100DCC00AF260A128A110A128A119B260A128A115C
:100DDC00F801F901F701D02FD02F0A128A117426CD
:100DEC000A128A11013A031DFC2EFD2ED02F013060
:100DFC00F8000030F900D02FD02F0130F000003077
:100E0C00F1000A128A117A260A128A110130F000B6
:100E1C000030F1000A128A1182260A128A1100305F
:100E2C00F000F1000A128A118A260A128A11B830CF
:100E3C00F5000B30F6000230F8000030F900D02F2E
:100E4C000A128A116E260A128A11013A031D2F2FDB
:100E5C00302F4B2F0030F000F1000A128A117A2645
:100E6C000A128A110030F000F1000A128A1182264F
:100E7C000A128A110030F000F1000A128A118A2637
:100E8C000A128A11F801F9014B2F0130F0000030E1
:100E9C00F1000A128A11CD260A128A11FF30F507C9
:100EAC000318F60AFF30F6077608803AFF00803008
:100EBC007F02031D632F013075020318662F672F05
:100ECC00D02F0330F8000030F900D02FD02F770846
:100EDC00F300F4017308F0007408F1000A128A118F
:100EEC0092260A128A110130F3007308F7070A30B0
:100EFC007702031C822F832F852FF701852F043057
:100F0C00F8000030F900D02F0130F0000030F10073
:100F1C000A128A117A260A128A110030F000F100A6
:100F2C000A128A1182260A128A110130F00000304E
:100F3C00F1000A128A118A260A128A110A128A11DF
:100F4C006E260A128A11013A031DAD2FAE2FD02F37
:100F5C000530F8000030F900D02FD02F0030F00011
:100F6C00F1000A128A117A260A128A110030F00056
:100F7C00F1000A128A1182260A128A110030F0003E
:100F8C00F1000A128A118A260A128A11F801F90153
:100F9C00D02FD02F7908003A0319D52FD02F7808ED
:100FAC00003A0319F32E013A0319032F033A0319DC
:100FBC00262F013A03196D2F073A03198A2F013A8C
:100FCC000319B42FD02FD02FD02F0A128A1100283A
:100FDC0083132A30FD000630FE00A530FF002030C0
:100FEC0084000A128A11BE260A128A1183010A127F
:040FFC008A11E42E44
:04400E00D4E0FFFFFC
:00000001FF
