:020000040000FA
:060000000A128A11EE2F26
:100D26008312031308080139982E0800831203134F
:100D3600080C01399E2E0800700C83120313031C45
:100D46008813031888170800700C83120313031CFA
:100D56000813031808170800700C83120313031CEA
:100D660088120318881608007008203E8400831332
:100D760000088312031386000800831603178901EF
:100D860083160313860183120313860108003F347A
:100D960006345B344F3466346D347D3407347F3427
:100DA6006F348316031308148814881308138812E3
:100DB60083120313880108007E088A007F088200D8
:100DC6000A128A11DF260A128A118000840A040890
:100DD6007D0603190034FF0A0319FE0AE32E012FCC
:100DE6000130F0020030031CF103F102C730F200BB
:100DF600FC2EF20BFB2EFF2E002F012F7008710424
:100E0600031D062F072FF32E082F08000A128A113A
:100E1600D4260A128A110A128A11C0260A128A11C7
:100E2600F701F801F901D02FD02F0A128A1199265D
:100E36000A128A11013A031D212F222FD02F0130C9
:100E4600F7000030F800D02FD02F0130F00000302E
:100E5600F1000A128A119F260A128A110130F00047
:100E66000030F1000A128A11A7260A128A110030F0
:100E7600F000F1000A128A11AF260A128A11B83060
:100E8600F5000B30F6000230F7000030F800D02FE6
:100E96000130F0000030F1000A128A11F2260A121F
:100EA6008A11FF30F5070318F60AFF30F6077608B1
:100EB600803AFF0080307F02031D632F01307502E8
:100EC6000318662F672FD02F0330F7000030F80085
:100ED600D02FD02F7908F300F4017308F0007408BE
:100EE600F1000A128A11B7260A128A110130F3009C
:100EF6007308F9070A307902031C822F832F852F86
:100F0600F901852F0430F7000030F800D02F0130AA
:100F1600F0000030F1000A128A119F260A128A1187
:100F26000030F000F1000A128A11A7260A128A116F
:100F36000130F0000030F1000A128A11AF260A12C1
:100F46008A110A128A1193260A128A11013A031D7E
:100F5600AD2FAE2FD02F0530F7000030F800D02F80
:100F6600D02F0030F000F1000A128A119F260A12D3
:100F76008A110030F000F1000A128A11A7260A121F
:100F86008A110030F000F1000A128A11AF260A1207
:100F96008A11F701F801D02FD02F7808003A0319EB
:100FA600D52FD02F7708003A0319182F013A0319C5
:100FB600282F033A03194B2F013A03196D2F073ACD
:100FC60003198A2F013A0319B42FD02FD02FD02F0F
:100FD6000A128A11002883132A30FD000630FE000B
:100FE600CA30FF00203084000A128A11E3260A1252
:0A0FF6008A1183010A128A11092FE3
:04400E00D4E0FFFFFC
:00000001FF
